:10086700C100012300022100000130000143010102
:100877005E010856006F370666773873085F000019
:06088700003F3173797996
:03002B00020026AA
:05002600B2A5C2CF32BB
:10057A00AB07AA06EA3395E0F9F8E47F607EEAFD64
:10058A00FC1207B38E378F38E5387802C333CE337F
:10059A00CED8F9F5798E78E53825E0F575E5373363
:1005AA00F574E537C313F567E53813F568AE37E533
:1005BA00387802CEC313CE13D8F9F56B8E6AAE37EC
:1005CA00E5387803CEC313CE13D8F9F5408E3FE54C
:1005DA0037C4F854F0C868F53BE538C4540F48F5F9
:1005EA003CAE78AF797C007D061203B18E358F362A
:1005FA00AE78AF797C007D0C1203B18E728F73AE28
:0F060A0078AF797C007D181203B18E318F3222C8
:100960008FCB8DCA8FCD8DCCC2CFD2CAD2ADD2AFF4
:010970002264
:0909C400C2AFC2CAC2CFD2A52203
:0408D6007F0A7E0017
:1008DA008E158F16D3E5169400E5159400400D1277
:0D08EA0006A5E516151670EC151580E82220
:0C0006007F017E267D82DDFEDEFADFF643
:0100120022CB
:1008F7008C138D14AB07AA06EB4A6007EAFFAD031A
:0D090700120960AF14AE131208DA0209C421
:10098200758920758DFDD28E759850D2AFD2AC226A
:0809CD008F993099FDC29922B7
:1006A500E4FFEFB40800504D9006B4F82828730213
:1006B50006CC0206D00206D80206DC0206E40206D3
:1006C500E80206F00206F4C2A28002D2A2C2A3C2C8
:1006D500A48022C2A28002D2A2D2A3C2A48016C242
:1006E500A28002D2A2C2A3D2A4800AC2A28002D250
:1006F500A2D2A3D2A474242FF8E6F5807D077C004E
:10070500ED1DAA0470011C4A70F6F5800FEF640810
:020715007090E2
:0107170022BF
:0300230002083898
:10083800C0E0309827859969E5224521700A859995
:1008480039F5217522018012E52264014521700ADB
:0F08580085993AF521F522753001C298D0E0322A
:02002E008D0E35
:10003000E4F50FF510EF14B43C0040030203019007
:10004000004D75F003A4C58325F0C583730201013B
:1000500002010A02011002011902011F0201280215
:10006000013102013A02014302014C020152020134
:100070005B02016402016D02017602017F020188C8
:1000800002019102019A0201A30201AC0201B50230
:1000900001BE0201C70201D00201D90201DF020143
:1000A000E80201F10201FA02020302020C02021547
:1000B00002021E020227020230020239020242023A
:1000C000024B02025402025D02026602026F020249
:1000D000780202810202890202910202990202A1BF
:1000E0000202A90202B10202B90202C10202C9025D
:1000F00002D10202D90202E10202E90202F1020285
:10010000F9750FF1751012020306750FF102022A3C
:10011000750FF27510E0020306750FF30202EC751D
:100120000FF4751026020306750FF47510D0020344
:1001300006750FF5751071020306750FF675100937
:10014000020306750FF6751098020306750FF70285
:1001500002AC750FF775109F020306750FF8751046
:1001600017020306750FF8751089020306750FF85C
:100170007510F3020306750FF975105B020306751F
:100180000FF97510B8020306750FFA751015020302
:1001900006750FFA751067020306750FFA7510B928
:1001A000020306750FFB751004020306750FFB753D
:1001B000104B020306750FFB751090020306750FB6
:1001C000FB7510CF020306750FFC75100C020306B9
:1001D000750FFC751044020306750FFC0202F475DE
:1001E0000FFC7510AD020306750FFC7510DC0203E1
:1001F00006750FFD75100A020306750FFD751034A4
:10020000020306750FFD75105C020306750FFD7580
:100210001082020306750FFD7510A6020306750F06
:10022000FD7510C8020306750FFD7510E802030680
:10023000750FFE751006020306750FFE751022027B
:100240000306750FFE75103D020306750FFE75104F
:1002500056020306750FFE75106E020306750FFE3B
:10026000751085020306750FFE75109A0203067558
:100270000FFE7510AE020306750FFE7510C1020366
:1002800006750FFE7510D3807D750FFE7510E48026
:1002900075750FFE7510F4806D750FFF7510038076
:1002A00065750FFF751011805D750FFF75101F804C
:1002B00055750FFF75102B804D750FFF751037802A
:1002C00045750FFF751042803D750FFF75104D800D
:1002D00035750FFF751057802D750FFF75106180F4
:1002E00025750FFF75106A801D750FFF75107280E0
:1002F00015750FFF75107A800D750FFF75108180D1
:1003000005E4F50FF5107F7D7E0012057AE50E14E9
:10031000B40A00507C90032375F003A4C58325F034
:10032000C5837302034102034902035102035902C8
:10033000036102036902037102037902038102036C
:1003400089853711853812804D857811857912801D
:1003500045857411857512803D8567118568128009
:1003600035856A11856B12802D853F11854012807D
:1003700025853B11853C12801D85351185361280FF
:1003800015857211857312800D85311185321280A9
:1003900005E4F511F512E510450F600BAD12AC1137
:1003A000AF10AE0F1208F7AF0E7E001208DA020986
:0103B000C488
:100930008F0C8D0D1209927FA01207F7AF0C1207D2
:09094000F7AF0D1207F70209BA26
:0208B4008F0EA5
:1008B6001209927FA01207F7AF0E1207F7120992DC
:0F08C6007FA11207F712088E8F0F1209BAAF0F1A
:0108D5002200
:10071800E4F50BF50CFF745F2FF8E6FE74242FF850
:10072800A6060FBF08F07F327E001208DAAF0C125F
:1007380008B48F0DE50DF4602A050CE50C70020570
:100748000BFF1208B4AD07AF0D12002ED2AF050C87
:10075800E50C7002050BD394FFE50B94005004E5FB
:060768004370C37543015C
:01076E002268
:10094900E4F50B7DFFAF0B1209301208D6050BE554
:060959000BC394FF40ED0A
:01095F002275
:10076F00E4F50A75900FE590640F6037120006E507
:10077F0090640F602E75900FAF90EF24F2600B0412
:10078F00700B120949E4F5238003120718C3E50A19
:10079F00648094B2500DE59064F060071200060576
:0307AF000A80EAD3
:0107B2002224
:0B001600D2AFD2A8D288D2AAD28A2290
:03000300020914DB
:10091400C0E0C0D075D000C007E54370047F0180FB
:0C092400027F008F43D007D0D0D0E0321B
:030013000209716E
:10097100C0D075D000C0077F321209CDD007D0D0CA
:010981003243
:1004D400E4F58012001612098212076FE530B401A8
:1004E400F8E569B4FF21E4F508F509AF0974562F5E
:1004F400F8E6FE74242FF8A6060509E5097002053E
:10050400086408450870E4E569B4FE21E4F508F5DB
:1005140009AF0974562FF8E6FE74242FF8A60605D1
:1005240009E509700205086408450870E4AD39AFAF
:10053400231209301208D60523E523D394FF400380
:10054400E4F523AD3AAF231209301208D60523E5AA
:1005540023D394FF4003E4F523E5436401600302DD
:1005640004DDAD3AAF3912002ED2AFE4F5307F315D
:060574001209CD0204DDB6
:0B09AF000000000000000000DFF62246
:0509A1001209A6D2A11D
:0809A6007F017E02DEFEDFFA94
:0109AE002226
:0F099200D2A01209A1C2A01209A6C2A10209A6F1
:0A09BA00C2A01209A1D2A00209A6F2
:0207F700AD074C
:1007F900E4FBFAEDC4131313540124FF92A0ED2571
:10080900E0FD1209A1C2A11209A60BBB08E5D2A0FD
:100819001209A6D2A130A00F0AEAD394C840F6C2A1
:0E082900A11209A67F0022C2A11209A67F011A
:01083700229E
:10088E00E4FDFCD2A01209A6D2A11209A6EC25E025
:10089E00FCA2A0E43342041209A6C2A11209A60DBD
:0508AE00BD08E5AF04E8
:0108B3002222
:03000000020619DC
:0C061900787FE4F6D8FD75817F02066052
:1003B100BC000BBE0029EF8DF084FFADF022E4CC30
:1003C100F875F008EF2FFFEE33FEEC33FCEE9DECF9
:1003D100984005FCEE9DFE0FD5F0E9E4CEFD22ED3F
:1003E100F8F5F0EE8420D21CFEADF075F008EF2F89
:1003F100FFED33FD4007985006D5F0F222C398FD7A
:050401000FD5F0EA2216
:1007B300C2D5E830E70FB2D5E4C39BFBE49AFAE471
:1007C30099F9E498F8EC30E717B2D51207E9120467
:1007D30042E4C39BFBE49AFAE499F9E498F88003B2
:1007E30012044230D50DE4C39FFFE49EFEE49DFD59
:0407F300E49CFC2264
:100625000204D4E493A3F8E493A34003F68001F213
:1006350008DFF48029E493A3F85407240CC8C333D6
:10064500C4540F4420C8834004F456800146F6DFA5
:10065500E4800B0102040810204080900867E47EC6
:10066500019360BCA3FF543F30E509541FFEE4939A
:10067500A360010ECF54C025E060A840B8E493A361
:10068500FAE493A3F8E493A3C8C582C8CAC583CA8C
:10069500F0A3C8C582C8CAC583CADFE9DEE780BE44
:01088D00006A
:1004060075F008758200EF2FFFEE33FECD33CDCCAD
:1004160033CCC58233C5829BED9AEC99E582984030
:100426000CF582EE9BFEED9AFDEC99FC0FD5F0D60D
:10043600E4CEFBE4CDFAE4CCF9A88222B800C1B937
:100446000059BA002DEC8BF084CFCECDFCE5F0CB75
:10045600F97818EF2FFFEE33FEED33FDEC33FCEBAE
:1004660033FB10D703994004EB99FB0FD8E5E4F969
:10047600FA227818EF2FFFEE33FEED33FDEC33FC56
:10048600C933C910D7059BE99A4007EC9BFCE99A4A
:10049600F90FD8E0E4C9FAE4CCFB2275F010EF2F8F
:1004A600FFEE33FEED33FDCC33CCC833C810D7078F
:1004B6009BEC9AE899400AED9BFDEC9AFCE899F8CA
:0E04C6000FD5F0DAE4CDFBE4CCFAE4C8F9225D
:00000001FF
